:0E00000038C066C06AC0FCCFFBCFFACFF9CF84
:10000E00F8CFF7CFE8C0F5CF66C0F3CFA4C0F1CFDD
:10001E00F0CFEFCFEECFEDCFECCFEBCF1027E80345
:10002E0064000A0001000010000110000100000031
:10003E0025642025640074756E676775207065727F
:10004E00696E7461680030003100320073616D704A
:10005E006169000080C0010002003C0002002B011B
:10006E0062000000F894EE27ECBBF1E0FBBFEBBFA3
:10007E00E5BFF8E1F1BDE1BD8DE0A2E0BB27ED9358
:10008E008A95E9F780E092E0A0E6ED930197E9F713
:10009E00E4E6F0E085919591009761F0A591B59118
:1000AE0005901590BF01F00105900D920197E1F7B3
:1000BE00FB01F0CFEFE5EDBFE2E0EEBFC0EED0E02A
:1000CE00F3C0D8D3F30131963F018BC0D3D3F201E5
:1000DE0031962F0186C0D3D386D41BB10CB1E12F3C
:1000EE00EC71D1F4E0910B01EF5FE0930B01CDD3F6
:1000FE000083A0910B01A83019F4E0E0E0930B010E
:10010E00A0910D01AF5FA0930D01A83029F4E0E09E
:10011E00E0930D01689420F870D434C01A93E091E6
:10012E000D01E030E1F3E0910C01EF5FE0930C0183
:10013E00ACD31081A0910C01A83019F4E0E0E0934B
:10014E000C01F894E0910D01E150E0930D017894CB
:10015E00E12F1991089593D39DD3E03099F09AD35E
:10016E00E150E0931801E0911701EF5FE093170162
:10017E0094D3E081ECB9A0911701A83019F4E0E016
:10018E00E0931701E991EFBFF991E991A9911895C3
:10019E00AA93A0911801A830E1F3F8947BD3E03034
:1001AE0011F45D9914C0E0911601EF5FE093160112
:1001BE0074D3A881A083A0911601A83019F4E0E0B1
:1001CE00E093160167D3EF5FE093180102C0E88158
:1001DE00ECB97894A8C14ED3E0E0E2BFF6013196B7
:1001EE006F01E991EFBFF991E9911895B89ABE9A0E
:1001FE000895E1E9F0E04E165F061CF46E167F06D8
:10020E000CF005C0C098C698E2E34CD3F2CF65D38C
:10021E000895CC24DD24EEE6F0E04E165F061CF4C5
:10022E006E167F062CF0E3E7F0E0EC15FD05E4F02A
:10023E00C09AC698E2E3E8BDEDE7EABD55D3A1E06A
:10024E00EDD0E0EEF0E053D3EEE3F0E050D3F30167
:10025E00B4D3C0D3F201B1D3BDD388E0B4D22C96BF
:10026E00A0EEB0E017D1D7CF14C0CC24DD24E2E845
:10027E00F0E04E165F061CF46E167F062CF0EDE7CE
:10028E00F0E0EC15FD052CF0C098C69AEDE70AD308
:10029E00EECFC0920101D09202011FD3AADF0895C2
:1002AE00E0E0E8BDEABD0895E0E0EBBBEABBE8BBE9
:1002BE00E3ECE7BBE0E0E5BBE4BBE2BBE0E3E1BBC4
:1002CE00E4E0E3BFE0E0E2BFECBFE1EAEFBDE4E073
:1002DE00EEBDE0E0EDBDECBDE7BDE6BDEBBDEABDBC
:1002EE00E9BDE8BDE2BDE5BDE4BDE3BDEBB7E06C45
:1002FE00EBBFEAE0E5BFE0E0E4BFE0ECEABFE1E03F
:10030E00E9BFE0E0EBB9E8EDEAB9E6E8E0BDE0E030
:10031E00E0BDE9E1E9B9E0E8E8B9E0E0E0BFE6B95F
:10032E00EDB9E6BFA0E1D7D0789460DFDDD2A0E0D2
:10033E0075D0A4E4B0E0BED0E0E0DCD2A09119010B
:10034E00A03280F4DAD2FF93EF93E8DEAF91BF9143
:10035E00EC93D3D2A081A03329F0E0911901EF5F85
:10036E00C9D2ECCFE0911901E0931A01E0E0C2D2BC
:10037E00E0911A01A0911901EA1720F1BED2E08195
:10038E00F0E0EF34A0E0FA0721F433DFE4E5F0E02B
:10039E000FC0EF36A0E0FA0721F43BDFE6E5F0E010
:1003AE0007C0EF35A0E0FA0741F45FDFE8E5F0E0C3
:1003BE00FA93EA9380E02DD22296E0911901EF5F35
:1003CE0099D2D6CF6DDF90D2A0E028D0AAE5B0E0CA
:1003DE0071D0A0EDB7E0DFD2A9CFFFCFAA93EBB3D8
:1003EE00EF70AE2FE881E07FEA2BEBBB83E08A95BE
:1003FE00F1F7DA9A87E08A95F1F7DA9887E08A952D
:10040E00F1F791C0AA93A881E9DFE881E295E8832C
:10041E00A881E4DF83E48A95F1F785C0AA93E88189
:10042E00F0E0E55DFE4FE081A981AE0FEBDFE981E3
:10043E00E0932F01E881E093300122960895A2E027
:10044E0062D2ACE0DFDFA1E05ED2E0E0E09330010B
:10045E00E0932F010895AA93A881AA3031F0E0917C
:10046E003101A0912F01AE1758F03ED2A09130016C
:10047E00AF5FA0933001D2DFA881AA3009F453C038
:10048E00E0912F01EF5FE0932F01D89AA881BADF98
:10049E00D89849C0BA93AA931A93A981BA81ED91BB
:1004AE00A983BA831E2FE03019F0A12FD4DFF5CF28
:1004BE00188141C02CD21A93E981FA813196E983D1
:1004CE00FA833197E4911E2FE03019F0A12FC3DF8C
:1004DE00F3CF188130C0AA93EAB3E06FEABBD29A89
:1004EE00D09AD19ADA98D898D998E881E0933101C8
:1004FE00E058E0932D01E881E054E0932E01A4E151
:10050E00B0E049D207D206D205D2A0E267DF85E875
:10051E008A95F1F7A8E276DFA4E074DFA5E872DF32
:10052E00A6E070DF8CDF21960895F1D1AA8130DE2E
:10053E00A881B981F5D123960895E9D154D2F6D187
:10054E00129640D23097F1F0F1D1F3D18F0130975E
:10055E0061F00230E0E01E07A0F0F80131978F0144
:10056E00AA81BB811496ED93FC93E0D11296D8D15B
:10057E003197AC81A083DAD125D2FF2312F0D6D1E8
:10058E00CFD105C0D3D1EFEFFFEFED93FC9332D275
:10059E0025960895BCD1269722D210E0AC85BD8554
:1005AE00E0E0F0E0ED93FC93EA89FB893196EA8B6B
:1005BE00FB8B3197E4912E2FE03009F4FEC0E12F32
:1005CE00E03031F4253211F411E001C0B5D1F4C0A0
:1005DE00E130A1F4253211F4AFD1EDC012E040E0CC
:1005EE0000E02D3211F401E0E7C02B3211F44BE2A2
:1005FE00E3C0203211F440E2DFC002C0E23039F431
:10060E0050E013E0203311F40068D6C003C0E3308D
:10061E0009F0D2C0203310F02A3308F007C0AAE048
:10062E005A9F502DE22FE0535E0FC6C0E22FE336E5
:10063E0039F489D18BD187D1A481AA938BD1BBC038
:10064E00E33731F48DD18ED190D1FDD01E2F08C05D
:10065E00E03751F485D186D188D100D11E2F0860A4
:10066E0002600F7730E02EC0E43611F0E93611F457
:10067E00046002C0E53729F4EAE2F0E07BD115E030
:10068E000BC0E83511F4086003C0E83709F093C0D9
:10069E00E4E3F0E06FD114E002FF11C061D162D14A
:1006AE006CD1AB85AA232AF4EA85FB8582D165D16C
:1006BE004DE2403011F01F5F01C00B7F03C050D1DF
:1006CE0051D15BD100FD10C0151770F407FF08C0A3
:1006DE0002FF04C00B7F242F115001C020E301C084
:1006EE0020E22AD15150F0CF312F01FF15C030300A
:1006FE0091F003FF05C0EE81FF8125913BD105C02E
:10070E00AE81BF812D91AE83BF8316D1503009F0DB
:10071E0051503150ECCF46C020E3EE81FF8156D1CF
:10072E00E887F987EE81FF81329624D1E885F98535
:10073E00AA85BB85AE17BF0748F02F5FA885B98580
:10074E00EA85FB85EA1BFB0B18D1F0CF2A3328F084
:10075E0003FF02C0295F01C0295D04FD19C02133CA
:10076E0020F4A885B985119709F409C0531710F024
:10077E0000FF01C011C020E207FF0AC020E30061A4
:10078E0002FF06C00B7F4A93E5D0503009F051505E
:10079E00D3D0503009F051503150A885B9851297F9
:1007AE0008F0BACF00FF07C0503029F05150E0E2F8
:1007BE00EA93D0D0F9CF10E0F7CEAC85BD8502D14B
:1007CE0015D164960895FF92F82E26970AD1D8D0A7
:1007DE00309719F4EFEFFFEF18C0DE011696E5D053
:1007EE008D01CED0C7D0E0E0E887E987DE011A960A
:1007FE00CCD0E4EAF2E07BD0DE011A96CBDE9F018C
:10080E00AE81BF81E0E0EC93F901F2D02A96FF9021
:10081E000895FF92F82E2697E6D0DE011496C5D0E5
:10082E008D01E0E0EC83ED83EE83EF83DE0118961D
:10083E00ACD0ECE9F2E05BD0DE011896ABDEDAD09C
:10084E002896FF90089563D0A991B991EE27FF27BE
:10085E006D91662311F03196FBCF089558D0AA27DB
:10086E00BB27E991F9910590002011F01196FBCF6D
:10087E00FD010895EA93FA93EFB7EA930895AA93C8
:10088E00EA93FA93EFB7EA930895E150F0E0ED5F43
:10089E00FE4F0895E09118010895E150F0E0E25FF7
:1008AE00FE4F0895E8BDE2E3EABDE0E0EA93A1E081
:1008BE00B5DDE0EEF0E0FA93EA93EEE3F0E0FA93C2
:1008CE00EA93F3017AD086D0F20177D083D088E014
:1008DE007ADF2C96A0EEB0E0DDCD43015201442428
:1008EE005524662477240895E0E0EA930895FA9358
:1008FE00EA930895E09319010895E0911901F0E04B
:10090E00E55EFE4F08957EDDA3E0B0E044C0BA93ED
:10091E00AA930895A0E362DD85E88A95F1F708951C
:10092E00ED91FD913196FE93EE930895AA81BB81D0
:10093E000895149647D008952A93AD85BE85EF8508
:10094E00F88909950895E889F98908953497E88B0F
:10095E00F98B0895AD85BE85EF85F88909950895C3
:10096E00F2DFF4CFA889B989E4CFEE83FF83AE819D
:10097E00BF810895EE83FF830895EA87FB8708956C
:10098E00DE011C9612D01ED008950FD01BD0AFDF03
:10099E001A930A930895109639F088EE93E0019712
:1009AE00F1F7A8951197C9F708950024AF0DB01D62
:1009BE000895F195E195F04008956F2F660F660B3F
:1009CE00762F0895ED91FC91119708950590F4916D
:1009DE00E02D08957A936A93FA93EA9308955A93C1
:1009EE004A933A932A931A930A9308955D814C8100
:1009FE003B812A81198108810895099119910895E1
:00000001FF
